:100000000C94DB000C9403010C9403010C94030189
:100010000C9403010C9403010C9403010C94030150
:100020000C9403010C9403010C9488070C94F707BB
:100030000C9403010C9403010C9403010C94030130
:100040000C9403010C9403010C9403010C94030120
:100050000C9403010C9403010C9403010C943E07CF
:100060000C9403010C9403010C9403010C94030100
:100070000C9403010C9403010C9403010C940301F0
:100080000C9403010C9403010C9403010C940301E0
:100090000C94290A0C9403010C9403010C940301A1
:1000A0000C9403010C9403010C940301080B00024F
:1000B0000202000009040000010202000005240001
:1000C0001001052401010104240206052406000193
:1000D0000705810310004009040100020A00000026
:1000E00007050202400000070583024000000403E8
:1000F000090412010002EF02014041233680000191
:100100000102030141726475696E6F204C4C43001B
:1001100041726475696E6F204C656F6E6172646FB9
:100120000000000000240027002A002D00300007F6
:100130000605040100080A0B0C0D0900000000254B
:100140000028002B002E00310000000000230026B4
:100150000029002C002F00040404040403040502F9
:100160000202020403020202020606060606060452
:10017000040202020404040802011040804010201E
:10018000408040800802040180402010020110805D
:1001900010204040200000000200090F000003046E
:1001A00001000C0000000000000000000000000042
:1001B00000000000480B11241FBECFEFDAE0DEBFC5
:1001C000CDBF11E0A0E0B1E0EAE5F2E202C00590A7
:1001D0000D92AC35B107D9F722E0ACE5B1E001C032
:1001E0001D92A53AB207E1F710E0CBEDD0E004C0D4
:1001F0002197FE010E94DB0ECA3DD107C9F70E947C
:10020000790B0C942B110C940000FC01809144029A
:10021000882311F13FB7F89482E08093E9002091A0
:10022000F200822F90E01816190614F481E090E095
:10023000882339F0289844E6409343024091F10026
:100240004083222339F02091F200211103C02BE6D4
:100250002093E8003FBF08958FEF9FEF08952FB7D9
:10026000F89483E08093E9009091E800892F8072F0
:1002700095FF04C09091F20080E4891B2FBF089580
:1002800080913B0281110DC082E08093370284E0AF
:100290008093380210923A021092390281E08093E2
:1002A0003B0287E392E0089581508F3008F047C009
:1002B000E82FF0E0E25AFE4F0C94DB0E7B017F0149
:1002C0006D01730177019F019F019F0182018801E8
:1002D0008C01900196019F019A01809180008F7797
:1002E000809380000895809180008F7DF9CF809168
:1002F0008000877FF5CF84B58F7784BD089584B55E
:100300008F7DFBCF809190008F7780939000089530
:10031000809190008F7DF9CF80919000877FF5CFFD
:100320008091C0008F778093C00008958091C000B5
:100330008F7DF9CF8091C200877F8093C20008959E
:10034000CF93DF93ECE9F1E08491EDE7F1E0D49114
:10035000EEE5F1E0C491CC23A1F081110E9454019B
:10036000EC2FF0E0EE0FFF1FE75BFE4FA591B4917D
:10037000EC91ED2381E090E009F480E0DF91CF91F2
:10038000089580E090E0FACF1F93CF93DF93282F5A
:1003900030E0F901EB56FE4F8491F901EA58FE4F27
:1003A000D491F901E95AFE4FC491CC23A9F0162F3C
:1003B00081110E945401EC2FF0E0EE0FFF1FE55C6D
:1003C000FE4FA591B4918FB7F894EC91111108C02C
:1003D000D095DE23DC938FBFDF91CF911F910895DD
:1003E000DE2BF8CF3FB7F89480913302909134021E
:1003F000A0913502B091360226B5A89B05C02F3FCB
:1004000019F00196A11DB11D3FBFBA2FA92F982F3A
:100410008827BC01CD01620F711D811D911D42E035
:10042000660F771F881F991F4A95D1F708958F92FD
:100430009F92AF92BF92CF92DF92EF92FF924B01C9
:100440005C010E94F2016B017C010E94F2016C19B7
:100450007D098E099F09683E734081059105A8F3C7
:1004600021E0821A9108A108B10888EEC80E83E045
:10047000D81EE11CF11C81149104A104B10429F7D8
:10048000FF90EF90DF90CF90BF90AF909F908F90B4
:100490000895E0911E02F0911F02309729F010920A
:1004A0001B0210921A0209940895089540911002B7
:1004B0005091110220910E0230910F024217530702
:1004C000B4F49091E8009570E1F39091E80092FD0A
:1004D00019C08093F1008091100290911102019651
:1004E0008F739927892B19F48EEF8093E800809100
:1004F00010029091110201969093110280931002C4
:1005000081E0089580E00895EF92FF920F931F938A
:10051000CF93DF93F82E192FE62E042F81E0860F5C
:10052000880F0E94560283E00E945602CF2DD12FE1
:10053000EC0EFD2EF11CCE15DF05B9F007FF13C040
:10054000FE0184910E945602182F80E00E945602FC
:10055000812321968111EFCFDF91CF911F910F91D0
:10056000FF90EF9008958881EDCF81E0F5CFDF9285
:10057000EF92FF920F931F93CF93DF93D82E8A01B0
:10058000EB017B01E40EF51ECE15DF0559F0D7FE19
:1005900012C0FE0184910E94560221968111F4CF6F
:1005A0000FEF1FEFC801DF91CF911F910F91FF90C7
:1005B000EF90DF9008958881EECF0F931F93CF9334
:1005C000DF931F92CDB7DEB782E0898342E450E02B
:1005D0006CEA70E080E80E94B7020E944001DC01F2
:1005E00012960D911C910115110589F0D801ED911C
:1005F000FC910280F381E02DBE016F5F7F4FC80147
:10060000099597FD04C0F80100851185ECCF89811B
:100610000F90DF91CF911F910F910895615030F0AD
:100620002091F100FC0120830196F8CF289884E600
:100630008093430208958F929F92AF92BF92CF9280
:10064000DF92EF92FF920F931F93CF93DF936C0192
:100650007B018A0180910B01882309F45CC08091A1
:100660004402882309F457C08091140280FF05C01A
:100670008091E00082608093E000E801B12C8AEF75
:10068000A82E93E0892E2AE3922E209711F4BB2006
:10069000D9F10E942F0181110AC0AA94AA20D9F190
:1006A00061E070E080E090E00E941702EECF8C17CE
:1006B0001D0611F00CF08C2F9FB7F8948092E90082
:1006C0002091E80025FD02C09FBFDFCF282F30E03A
:1006D000C21BD30BF701815020F041914093F100F0
:1006E000FACFE20EF31EBB2021F09092E800B12C6D
:1006F000EBCF8091E80085FDE7CF9092E800BB2426
:10070000B394209709F3F3CF5D9884E680931302A6
:10071000101611063CF081E090E0F601938382838D
:1007200010E000E0C801DF91CF911F910F91FF9081
:10073000EF90DF90CF90BF90AF909F908F900895F3
:10074000CF93DF931F92CDB7DEB76983DC01ED91C4
:10075000FC910280F381E02D41E050E0BE016F5F2B
:100760007F4F09950F90DF91CF91089583E080939B
:10077000E9008091F200882319F08AE38093E80071
:1007800008950E942F0190E00895CF93DF931F9268
:10079000CDB7DEB7FC018485958597FD08C02FEFA6
:1007A0003FEF358724870F90DF91CF910895CE01D9
:1007B00001960E940501019719F4898190E0F3CF19
:1007C0008FEF9FEFF0CF0F931F93CF93DF931F9285
:1007D000CDB7DEB78C01FC018485958597FF0BC0F2
:1007E000CE0101960E940501019771F4898190E084
:1007F000F80195878487F801848595850F90DF91AE
:10080000CF911F910F9108958FEF9FEFF1CFFC01D2
:100810008485958597FD0BC09FB7F89482E08093FF
:10082000E9008091F2009FBF90E0019608959FB784
:10083000F89482E08093E9008091F2009FBF90E0FD
:1008400008952091C401260F3327331F213231052B
:10085000ECF42091E801FC0190E080E0243069F0A4
:1008600082E00895A091C4012191AC014C555E4FE6
:10087000A40FB52FB11D2C930196861798F3809184
:10088000C401680F6093C40180E0089581E0089579
:100890001092E80181E08093EA011092E90161E0A1
:1008A00082E00E94C40161E083E00E94C401E9EBA0
:1008B000F0E080818E7F808380818D7F808388E4DB
:1008C0008093B80085E48093BC000895CF93DF93B4
:1008D00091E09093A3018823B9F0C091B800D09122
:1008E000BA008091BC008A7B8093BC0060E082E00B
:1008F0000E94C40160E083E00E94C4010E94480499
:10090000D093BA00C093B800DF91CF9108950895B5
:10091000E0911D0280911C02E81730F4F0E0E258EB
:10092000FE4F808190E008958FEF9FEF08959091A2
:100930001D0280911C022FEF3FEF981748F4E92F1A
:10094000F0E0E258FE4F208130E09F5F90931D025F
:10095000C901089580911C0290911D02891B990B79
:100960000895CF92DF92EF92FF920F931F93CF9350
:10097000DF937C01CB018A0120917D01222389F044
:10098000EB016B01C40ED51ECC15DD0569F0699134
:10099000D701ED91FC910190F081E02DC7010995FF
:1009A000F3CF642F0E942104C801DF91CF911F91E2
:1009B0000F91FF90EF90DF90CF900895CF93DF934A
:1009C0001F92CDB7DEB7698320917D012223F9F014
:1009D00020911A02203258F021E030E0FC013383EC
:1009E000228390E080E00F90DF91CF910895809175
:1009F0001B02E82FF0E0E35AFE4F998190838F5F4E
:100A000080931B0280931A0281E090E0ECCF61E0BA
:100A1000CE0101960E942104F7CF90E080E0089576
:100A2000CF92DF92EF92FF920F931F9381E080931A
:100A30007D0110925C0110921B0210921A020E941A
:100A4000F2016B017C018091E80181115CC082E0C0
:100A50008093E80181E08093EA018FEF8093E701C2
:100A600010920C0210920B0210920D0280910D0256
:100A700080930D028091E901813009F076C01092D7
:100A8000E9010E94F2016B017C0180910D028093CB
:100A9000BB0080919F019091A001A091A101B09114
:100AA000A201892B8A2B8B2B99F00E94F2010091D5
:100AB0009F011091A0012091A1013091A2016C1918
:100AC0007D098E099F090617170728073907E0F1E6
:100AD0008091BC0083FDD9CF85EC8093BC000E943F
:100AE000F2016B017C018091E801823009F43FC082
:100AF0008091E7018F3F61F18091E701803241F100
:100B00008091E70125C080919F019091A001A09163
:100B1000A101B091A201892B8A2B8B2B09F493CFD1
:100B20000E94F20100919F011091A0012091A1016A
:100B30003091A2016C197D098E099F0906171707CC
:100B40002807390708F07FCF80919E010E94660434
:100B500010921B0210921A0210927D011F910F91A8
:100B6000FF90EF90DF90CF90089585EEB6CF809103
:100B70009F019091A001A091A101B091A201892BA8
:100B80008A2B8B2B09F4AFCF0E94F20100919F01B9
:100B90001091A0012091A1013091A2016C197D0951
:100BA0008E099F09061717072807390708F09BCFFA
:100BB000CBCFFC0101900020E9F73197AF01481B32
:100BC000590BBC0185E492E00C941B038F929F9219
:100BD000AF92BF920F931F93CF93DF93CDB7DEB742
:100BE000A1970FB6F894DEBF0FBECDBF19A2423059
:100BF00008F44AE08E010F5D1F4F842E912CB12C1A
:100C0000A12CA50194010E94AA0EE62FB901CA01E8
:100C1000EA30F4F4E05DD801EE938D01232B242B10
:100C2000252B79F790E080E0109719F0CD010E9414
:100C3000D905A1960FB6F894DEBF0FBECDBFDF91E8
:100C4000CF911F910F91BF90AF909F908F9008957B
:100C5000E95CE1CF4F925F926F927F928F929F9269
:100C6000AF92BF92CF92DF92EF92FF920F931F93BA
:100C7000CF936B017C01742EAC019B010E94261165
:100C8000882399F08FE391E0CF911F910F91FF900E
:100C9000EF90DF90CF90BF90AF909F908F907F901C
:100CA0006F905F904F900C94D90546015701E894DE
:100CB000B7F82FEF3FEF4FE75FE7C501B4010E94A0
:100CC000261181110DC02FEF3FEF4FE75FE7C50100
:100CD000B4010E94550F18161CF483E491E0D4CFA0
:100CE0002FEF3FEF4FE75FE4C701B6010E94B4105A
:100CF00018161CF487E491E0C7CF2FEF3FEF4FE7C2
:100D00005FECC701B6010E94550F87FDF3CF20E0CD
:100D100030E0A901C701B6010E94550F10E000E0C4
:100D200087FF0AC06DE285E492E00E94A0038C0177
:100D3000F7FAF094F7F8F094C0E060E070E080E03B
:100D40009FE37C1641F020E030E040E251E40E9455
:100D50005A0FCF5FF6CFA70196010E94E90E2B0133
:100D60003C010E94D30F4B015C014AE00E94E60562
:100D70007C01E00EF11ECC23C1F1C501B4010E943B
:100D800002109B01AC01C301B2010E94E80E4B01AD
:100D90005C016EE285E492E00E94A003E80EF91E79
:100DA000C15018F120E030E040E251E4C501B40147
:100DB0000E94B9102B013C010E94D30F4B01B12CB2
:100DC000A12C4AE0C501B4010E94E605E80EF91E17
:100DD000C501B4010E9402109B01AC01C301B20124
:100DE0000E94E80E4B015C01DBCFC701CF911F9140
:100DF0000F91FF90EF90DF90CF90BF90AF909F90BA
:100E00008F907F906F905F904F90089585ED8093C5
:100E1000BC0080919F019091A001A091A101B0918F
:100E2000A2010796A11DB11D23E0B695A795979540
:100E300087952A95D1F72091BC0024FD03C010921C
:100E4000E801089540919F015091A0016091A10196
:100E50007091A201452B462B472B69F30097A10502
:100E6000B10541F025E32A95F1F700000197A109AA
:100E7000B109E1CF80919E010C9466041F920F92FC
:100E80000FB60F9211242F933F938F939F93AF939D
:100E9000BF9380912F0290913002A0913102B091C6
:100EA000320230912E0223E0230F2D3758F50196A0
:100EB000A11DB11D20932E0280932F02909330022A
:100EC000A0933102B09332028091330290913402A8
:100ED000A0913502B09136020196A11DB11D8093FB
:100EE000330290933402A0933502B0933602BF913F
:100EF000AF919F918F913F912F910F900FBE0F90C7
:100F00001F90189526E8230F0296A11DB11DD2CF80
:100F10001F920F920FB60F9211248F939F9380917F
:100F2000E1009091E100937F9093E10083FF0FC077
:100F30001092E90091E09093EB001092EC0092E3A4
:100F40009093ED001092440298E09093F00082FF9D
:100F500022C093E09093E9009091F200992319F058
:100F60009AE39093E80090911302992341F09091B5
:100F70001302915090931302911101C05D9A9091C8
:100F80004302992341F09091430291509093430280
:100F9000911101C0289A84FF18C08091E2008E7ED2
:100FA00081608093E2008091E1008F7E8093E10078
:100FB000809114028E7E8061809314029F918F91A4
:100FC0000F900FBE0F901F90189580FFF7CF809164
:100FD000E2008E7E80618093E2008091E1008E7E4F
:100FE0008093E100809114028E7E8160E5CF1F9294
:100FF0000F920FB60F921124CF92DF92EF92FF92D1
:101000000F931F932F933F934F935F936F937F9310
:101010008F939F93AF93BF93EF93FF93CF93DF9300
:10102000CDB7DEB76C97DEBFCDBF1092E9008091DF
:10103000E80083FF25C068E0CE0145960E940E03BC
:1010400082EF8093E8008D8987FF39C09091E80096
:1010500090FFFCCF982F907609F034C19E894F897C
:10106000588D2F89F88C911131C0803861F58091AD
:1010700015028093F1001092F1008EEF8093E8004A
:101080006C960FB6F894DEBF0FBECDBFDF91CF9147
:10109000FF91EF91BF91AF919F918F917F916F9150
:1010A0005F914F913F912F911F910F91FF90EF9082
:1010B000DF90CF900F900FBE0F901F9018959EEF6E
:1010C0009093E800C7CF1092F100D5CF913059F43A
:1010D0008111D3CF4130510581F6809115028D7F6A
:1010E00080931502CACF933049F48111C6CF4130A5
:1010F000510519F6809115028260F2CF953041F4C6
:101100008091E80080FFFCCF20682093E300B5CFFA
:10111000963009F0A9C00B8D1C8D22E01092E900D9
:101120001092110210921002F2122EC010920F02B1
:1011300010920E020E94DD021F8299E09983FA82CA
:1011400091E09E8390EA98879AEF99872091100208
:1011500030911102275F3F4F3C832B838D83109288
:10116000E900109211021092100210930F020093E6
:101170000E0249E050E0BE016F5F7F4F80E00E94A9
:10118000B7020E94DD0279CF10930F0200930E0286
:101190000E944001DC0112960D911C910115110570
:1011A00009F451C1D801ED91FC910480F581E02D45
:1011B000BE016B5E7F4FC8010995009709F03EC1E3
:1011C000F80100851185EACFF3E0FF120EC08F8988
:1011D000882309F440C0823061F440E860E180E196
:1011E00091E00E948402811148CF81E28093EB005C
:1011F00047CF813029F440E86BE084E091E0F1CF03
:10120000833099F70E944001DC011296ED90FC902A
:101210008E010F5F1F4F6801E114F10479F0D701CF
:10122000ED91FC910680F781E02DB801C701099589
:10123000080F111DF701E084F184EECFD8011C9254
:10124000F60101900020E9F73197BF016C197D0983
:1012500040E0C601C6CF6EEE70E0FB01449150E065
:1012600080E80E94B70209CF973009F4BECF9830CA
:1012700021F481E08093F10000CF993009F0FDCE98
:10128000837009F0B2CFE5E1F1E081E031E096E36F
:101290002191222371F08093E9003093EB00DF016C
:1012A00011972C912093EC009093ED008F5F873085
:1012B00079F78EE78093EA001092EA008F89809395
:1012C0004402DBCE8B8D9C8D1092E90010921102AE
:1012D0001092100290930F0280930E02898D81115B
:1012E00092C08E899D89913A49F4813209F07DCF6F
:1012F00047E050E064E071E080E0B3CF913209F064
:1013000074CF833269F48F89988DB0E0A0E0809328
:10131000000190930101A0930201B0930301ADCEAF
:10132000803269F48091E80082FFFCCF67E084E0BE
:1013300091E00E940E038BEF8093E8009ECE8232F4
:1013400009F09BCE8F8980930B01EEEFFFE785912B
:1013500094918B3F9C4D51F1E0E0F8E080910401C5
:1013600090910501A0910601B0910701803B944046
:10137000A105B105F1F480910B0180FD1AC0EE3F8B
:101380008AE0F80789F587E797E791838083809162
:1013900060008093120288E19BE00FB6F894A89554
:1013A000809360000FBE9093600067CEEEEFFAE08E
:1013B000D5CF808191818737974709F05ECEA89578
:1013C0008091600088618093600080911202809318
:1013D0006000EE3F2AE0F20789F08091FE0A9091CA
:1013E000FF0A9183808349CE808191818737980756
:1013F00051F29093FF0A8093FE0AC5CF1092FF0A24
:101400001092FE0A3ACE0E944001DC0112960D9124
:101410001C910115110509F4E8CED801ED91FC915C
:101420000190F081E02DBE016B5E7F4FC8010995F0
:10143000811123CEF80100851185EBCF181619060E
:101440000CF41BCED2CEF1E0FF12BECE62EF70E004
:1014500004CF1F920F920FB60F9211242F933F9338
:101460004F935F936F937F938F939F93AF93BF93AC
:10147000EF93FF938091B900887F803609F44AC0CA
:10148000F0F5883209F4A7C018F5803109F49BC043
:10149000B8F4882309F4F9C0883009F494C0FF91A6
:1014A000EF91BF91AF919F918F917F916F915F91DC
:1014B0004F913F912F910F900FBE0F901F90189555
:1014C000883109F488C0803251F78093E70114C055
:1014D000803409F49DC040F48033B9F38833F9F6C1
:1014E0008093E70185ECB0C0803509F485C088356C
:1014F00009F496C0883499F60E940607D0CF88393F
:1015000009F48CC038F5883729F050F4883611F08A
:10151000803729F683E08093E8011092E60157C0F6
:10152000883809F47BC0803919F0803809F0B7CFCA
:101530008091E601803208F071C0E091E60181E01F
:101540008E0F8093E6018091BB00F0E0EA53FE4FDE
:1015500080833DC0803B39F0E0F4803A09F479C0E3
:10156000883A09F09CCF84E08093E8011092C5018D
:101570001092C401E0911802F0911902099580912E
:10158000C40181110FC081E08093C4011092A401B5
:1015900009C0803C09F4A6CF883C09F4A3CF883B5E
:1015A00009F07DCFE091C50181E08E0F8093C501E8
:1015B000F0E0EC55FE4F80818093BB009091C50117
:1015C0008091C40129C080910D028093BB0085ECFD
:1015D0008093BC0064CF90910C0280910B0298170D
:1015E00058F5E0910C0281E08E0F80930C02F0E040
:1015F000E551FE4F8081E9CFE0910C0281E08E0F32
:1016000080930C028091BB00F0E0E551FE4F808397
:1016100090910C0280910B029817C8F285E8D8CF00
:10162000E0910C0281E08E0F80930C028091BB0050
:10163000F0E0E551FE4F80838091EA0181115CCF9B
:1016400081E08093E90184EA8093BC001092E80174
:1016500026CF85EC8093BC001092E8018091E601D2
:10166000803230F4E091E601F0E0EA53FE4F108260
:101670006091E60170E0E0911602F091170286ECAD
:1016800091E009951092E6010ACF1092E70134CF5C
:10169000E5E4F2E01382128288EE93E0A0E0B0E08D
:1016A00084839583A683B7832FE131E03183208340
:1016B0002FEF3FEF35872487E5E9F2E013821282AE
:1016C00084839583A683B78381E391E091838083AC
:1016D00080910C0190910D01A0910E01B0910F012C
:1016E0008093A1029093A202A093A302B093A402BC
:1016F0000895789484B5826084BD84B5816084BD8A
:1017000085B5826085BD85B5816085BD80916E009F
:10171000816080936E0010928100809181008260D0
:10172000809381008091810081608093810080910D
:10173000800081608093800080919100826080931E
:101740009100809191008160809391008091900040
:101750008160809390008091C10084608093C1007B
:101760008091C10082608093C1008091C10081603E
:101770008093C1008091C30081608093C3008091F9
:10178000C00082608093C0008091C200816080931D
:10179000C20080917A00846080937A0080917A0000
:1017A000826080937A0080917A00816080937A00D1
:1017B00080917A00806880937A001092440210929F
:1017C0001502109214028091D70081608093D70097
:1017D00080EA8093D80089B5806189BD89B582602F
:1017E00089BD09B400FEFDCF61E070E080E090E0CB
:1017F0000E9417028091D8008F7C80618093D8006E
:101800008091E000807F8093E0008091E1008E7EF7
:101810008093E1008DE08093E200559A209AEDE7F5
:10182000F1E02491EEE5F1E084918823C1F090E0AD
:10183000880F991FFC01EF5DFE4FC591D491FC010B
:10184000E55CFE4FA591B4919FB7F8943881822F43
:10185000809583238883EC91E22BEC939FBF8FEFDD
:101860009FEF909352028093510210921D021092AA
:101870001C0210921B0210921A020E94480489E472
:1018800092E0909319028093180285E592E090937C
:1018900017028093160288E08093BA0080E195E0F9
:1018A00090931F0280931E0264EF71E080E090E04D
:1018B0000E9417028BE491E00E94D90584E591E033
:1018C0000E94D90501E311E044244A9483E0582E94
:1018D000612C712CC0E0D0E00E94A001892B09F09E
:1018E0006CC00E94A001892B91F5F8018491209190
:1018F0007B00982F990F990F90722F7D922B9093C8
:101900007B008770806480937C0080917A00806483
:1019100080937A0080917A0086FDFCCF80917800D8
:10192000A0917900BA2FA82F28EC30E00E94E10E98
:10193000A30192010E94780E30932102209320028D
:1019400064E670E080E090E00E941702CACF6091E8
:10195000200270912102072E000C880B990B0E9427
:10196000041020E030E04AE754E40E94B91020E07F
:1019700030E048EC52E40E945A0F609326027093C4
:101980002702809328029093290220910C01309124
:101990000D0140910E0150910F010E94E80E20E0D0
:1019A00030E046E153E40E945A0F609322027093A4
:1019B000230280932402909325028FB7F8944091DC
:1019C0002F025091300260913102709132028FBF2C
:1019D00080912A0290912B02A0912C02B0912D02AD
:1019E00088539F4FAF4FBF4F84179507A607B70780
:1019F00008F053C02FB7F89480912F0290913002D5
:101A0000A0913102B09132022FBF80932A029093AD
:101A10002B02A0932C02B0932D0280900C01909089
:101A20000D01A0900E01B0900F01A50194016091ED
:101A300026027091270280912802909129020E942B
:101A4000E80E6B017C0120E030E0A9010E94B41097
:101A5000181624F0F7FAF094F7F8F09420E030E04C
:101A600040EA51E4C701B6010E94B41018160CF008
:101A700092C0A5019401609122027091230280918D
:101A80002402909125020E94E90E60930C0170934C
:101A90000D0180930E0190930F01C0900C01D09026
:101AA0000D01E0900E01F0900F0120E030E040E2E7
:101AB00051E4C701B6010E94E90E0E94CC0F4B0110
:101AC0005C0120E030E040E251E4C701B6010E9431
:101AD000E80E0E94CC0F6B017C01C814D904EA0403
:101AE000FB0474F48C189D08AE08BF080E94200EF9
:101AF000A50194010E94780EC60ED71EE81EF91E9D
:101B0000C701B6010E9404106093A1027093A20263
:101B10008093A3029093A4024AE060E070E0CB01BE
:101B20000E94E60587E591E00E94D90542E060E069
:101B300070E08AEF94E40E942A0687E591E00E9413
:101B4000D90560910C0170910D0180910E01909169
:101B50000F0142E00E942A0687E591E00E94D90524
:101B60006091A1027091A2028091A3029091A402BF
:101B700042E00E942A0684E591E00E94D90564E6CD
:101B800070E080E090E00E941702209709F4A4CE54
:101B90000E940000A1CE1092220210922302109205
:101BA00024021092250279CF8F929F92AF92BF921A
:101BB000CF92DF92EF92FF92CF93DF93EC01688197
:101BC00079818A819B81611571058105910521F4D7
:101BD00064E279ED8BE597E02DE133EF41E050E0F1
:101BE0000E94780E49015A019B01AC01A7EAB1E4B9
:101BF0000E94970E6B017C01ACEEB4EFA50194013D
:101C00000E94A50EC60ED71EE81EF91EF7FE06C0DE
:101C100081E0C81AD108E10880E8F80AC882D982B0
:101C2000EA82FB82C701B6019F77DF91CF91FF90D7
:101C3000EF90DF90CF90BF90AF909F908F900895DE
:101C40008F929F92AF92BF92CF92DF92EF92FF92CC
:101C50006091100170911101809112019091130116
:101C6000611571058105910521F464E279ED8BE53B
:101C700097E02DE133EF41E050E00E94780E4901FA
:101C80005A019B01AC01A7EAB1E40E94970E6B01D7
:101C90007C01ACEEB4EFA50194010E94A50EC60E26
:101CA000D71EE81EF91EF7FE06C081E0C81AD1084B
:101CB000E10880E8F80AC0921001D0921101E09288
:101CC0001201F0921301C701B6019F77FF90EF90C8
:101CD000DF90CF90BF90AF909F908F9008956093CA
:101CE00010017093110180931201909313010895D4
:101CF000052E97FB1EF400940E948F0E57FD07D00F
:101D00000E94AA0E07FC03D04EF40C948F0E50953F
:101D10004095309521953F4F4F4F5F4F08959095D7
:101D20008095709561957F4F8F4F9F4F08950E94CA
:101D3000CC0EA59F900DB49F900DA49F800D911D7A
:101D400011240895B7FF0C94970E0E94970E821BE2
:101D5000930B0895A1E21A2EAA1BBB1BFD010DC017
:101D6000AA1FBB1FEE1FFF1FA217B307E407F5074B
:101D700020F0A21BB30BE40BF50B661F771F881F27
:101D8000991F1A9469F760957095809590959B01BD
:101D9000AC01BD01CF010895A29FB001B39FC00166
:101DA000A39F700D811D1124911DB29F700D811D87
:101DB0001124911D0895EE0FFF1F0590F491E02D61
:101DC00009940E94CC0EB7FF0895821B930B0895CF
:101DD0005058BB27AA270E94000F0C947A100E942B
:101DE0006C1038F00E94731020F039F49F3F19F402
:101DF00026F40C9469100EF4E095E7FB0C94631044
:101E0000E92F0E948B1058F3BA17620773078407F3
:101E1000950720F079F4A6F50C94AD100EF4E0953A
:101E20000B2EBA2FA02D0B01B90190010C01CA0194
:101E3000A0011124FF27591B99F0593F50F4503E3F
:101E400068F11A16F040A22F232F342F4427585F31
:101E5000F3CF469537952795A795F0405395C9F749
:101E60007EF41F16BA0B620B730B840BBAF0915001
:101E7000A1F0FF0FBB1F661F771F881FC2F70EC0A0
:101E8000BA0F621F731F841F48F487957795679573
:101E9000B795F7959E3F08F0B0CF9395880F08F05F
:101EA0009927EE0F9795879508950E943F1008F4A3
:101EB00081E008950E946E0F0C947A100E947310B6
:101EC00058F00E946C1040F029F45F3F29F00C9408
:101ED000631051110C94AE100C9469100E948B1079
:101EE00068F39923B1F3552391F3951B550BBB2749
:101EF000AA2762177307840738F09F5F5F4F220F8E
:101F0000331F441FAA1FA9F335D00E2E3AF0E0E884
:101F100032D091505040E695001CCAF72BD0FE2FCE
:101F200029D0660F771F881FBB1F26173707480762
:101F3000AB07B0E809F0BB0B802DBF01FF2793581A
:101F40005F4F3AF09E3F510578F00C9463100C946B
:101F5000AE105F3FE4F3983ED4F38695779567958E
:101F6000B795F7959F5FC9F7880F911D969587954F
:101F700097F90895E1E0660F771F881FBB1F62176E
:101F800073078407BA0720F0621B730B840BBA0B2C
:101F9000EE1F88F7E09508950E94D30F6894B11161
:101FA0000C94AE1008950E94931088F09F5798F0FB
:101FB000B92F9927B751B0F0E1F0660F771F881F4E
:101FC000991F1AF0BA95C9F714C0B13091F00E9468
:101FD000AD10B1E008950C94AD10672F782F8827CD
:101FE000B85F39F0B93FCCF3869577956795B3958F
:101FF000D9F73EF490958095709561957F4F8F4FFE
:102000009F4F0895E89409C097FB3EF49095809502
:10201000709561957F4F8F4F9F4F9923A9F0F92FAE
:1020200096E9BB279395F695879577956795B7952C
:10203000F111F8CFFAF4BB0F11F460FF1BC06F5F12
:102040007F4F8F4F9F4F16C0882311F096E911C024
:10205000772321F09EE8872F762F05C0662371F045
:1020600096E8862F70E060E02AF09A95660F771F59
:10207000881FDAF7880F9695879597F90895990F35
:102080000008550FAA0BE0E8FEEF16161706E80742
:10209000F907C0F012161306E407F50798F0621B63
:1020A000730B840B950B39F40A2661F0232B242B38
:1020B000252B21F408950A2609F4A140A6958FEF57
:1020C000811D811D089597F99F6780E870E060E0A9
:1020D00008959FEF80EC089500240A9416161706C1
:1020E00018060906089500240A9412161306140609
:1020F00005060895092E0394000C11F4882352F06C
:10210000BB0F40F4BF2B11F460FF04C06F5F7F4F23
:102110008F4F9F4F089557FD9058440F551F59F00A
:102120005F3F71F04795880F97FB991F61F09F3FC4
:1021300079F087950895121613061406551FF2CFED
:102140004695F1DF08C0161617061806991FF1CF3D
:1021500086957105610508940895E894BB27662764
:102160007727CB0197F908950E943F1008F48FEF6D
:1021700008950E94CC100C947A100E946C1038F0D4
:102180000E94731020F0952311F00C9463100C94AE
:10219000691011240C94AE100E948B1070F3959F5F
:1021A000C1F3950F50E0551F629FF001729FBB274E
:1021B000F00DB11D639FAA27F00DB11DAA1F649FEA
:1021C0006627B00DA11D661F829F2227B00DA11D9D
:1021D000621F739FB00DA11D621F839FA00D611D23
:1021E000221F749F3327A00D611D231F849F600D44
:1021F000211D822F762F6A2F11249F5750409AF06D
:10220000F1F088234AF0EE0FFF1FBB1F661F771FF8
:10221000881F91505040A9F79E3F510580F00C94C3
:1022200063100C94AE105F3FE4F3983ED4F38695B0
:1022300077956795B795F795E7959F5FC1F7FE2B63
:10224000880F911D9695879597F908950E943F10E4
:0A225000880B990B0895F894FFCF56
:10225A00FFFFFFFF00E10000000000000000FA435A
:10226A000100000000C1808100000000000000A001
:10227A00031B03C103B6030704C503E303000000FD
:10228A0000DE04B1040D058704AA04970488046ECD
:10229A00616E00696E66006F7666004C6973746FD2
:0C22AA00203A29000D0A00202C20000022
:00000001FF
