:100000000C9458010C9480010C9480010C94800194
:100010000C9480010C9480010C9480010C9480015C
:100020000C9480010C9480010C945B060C94CA061D
:100030000C9480010C9480010C9480010C9480013C
:100040000C9480010C9480010C9480010C9480012C
:100050000C9480010C9480010C9480010C94110686
:100060000C9480010C9480010C9480010C9480010C
:100070000C9480010C9480010C9480010C948001FC
:100080000C9480010C9480010C9480010C948001EC
:100090000C94FC080C9480010C9480010C94800159
:1000A0000C9480010C9480010C94800100407A1023
:1000B000F35A00A0724E18090010A5D4E80000E819
:1000C0007648170000E40B54020000CA9A3B000077
:1000D00000E1F505000080969800000040420F0006
:1000E0000000A08601000000102700000000E803C7
:1000F000000000006400000000000A000000000092
:100100000100000000002C76D888DC674F0823DF50
:10011000C1DFAE59E1B1B796E5E3E453C63AE65123
:10012000997696E8E6C28426EB898C9B62ED407C4A
:100130006FFCEFBC9C9F40F2BAA56FA5F490055AE6
:100140002AF75C936B6CF9676DC11BFCE0E40D470B
:10015000FEF520E6B500D0ED902E0300943577052E
:100160000080841E080000204E0A000000C80C33E6
:100170003333330F986E12831141EF8D2114893B75
:10018000E65516CFFEE6DB18D1844B381BF77C1DF5
:10019000901DA4BBE424203284725E228100C9F148
:1001A00024ECA1E53D27080B00020202000009042F
:1001B00000000102020000052400100105240101D5
:1001C000010424020605240600010705810310002E
:1001D0004009040100020A00000007050202400075
:1001E0000007058302400000040309041201000215
:1001F000EF020140412336800001010203014172F8
:100200006475696E6F204C4C430041726475696E71
:100210006F204C656F6E6172646F00070605040104
:1002200000080A0B0C0D0900000000240027002A1A
:10023000002D00300000000000250028002B002EBB
:10024000003100000000002300260029002C002FB0
:10025000000404040404030405020202020403026D
:10026000020202060606060606040402020204044E
:1002700004080201104080401020408040800802A5
:100280000401804020100201108010204040200016
:1002900000000200090F0000030401000C00000030
:1002A00000000000000000000000000000004E0AF6
:1002B00011241FBECFEFDAE0DEBFCDBF11E0A0E01A
:1002C000B1E0E0E1F9E202C005900D92A235B1077C
:1002D000D9F722E0A2E5B1E001C01D92A937B2072B
:1002E000E1F711E0C8E5D1E004C02197FE010E94CA
:1002F0005E11C735D107C9F70E946F0A0C948614A6
:100300000C940000FC0180911802882311F13FB782
:10031000F89482E08093E9002091F200822F90E02F
:100320001816190614F481E090E0882339F0289813
:1003300044E6409317024091F1004083222339F0B4
:100340002091F200211103C02BE62093E8003FBF6B
:1003500008958FEF9FEF08952FB7F89483E080936F
:10036000E9009091E800892F807295FF04C0909178
:10037000F20080E4891B2FBF089580910F02811144
:100380000DC082E080930B0284E080930C021092F7
:100390000E0210920D0281E080930F028BE092E03A
:1003A000089581508F3008F047C0E82FF0E0E55203
:1003B000FE4F0C945E11F801FC01EA01F001F4011A
:1003C0001C021C021C02FF01050209020D0213029D
:1003D0001C021702809180008F778093800008951F
:1003E000809180008F7DF9CF80918000877FF5CF4D
:1003F00084B58F7784BD089584B58F7DFBCF8091C0
:1004000090008F77809390000895809190008F7D69
:10041000F9CF80919000877FF5CF8091C0008F77D2
:100420008093C00008958091C0008F7DF9CF8091A6
:10043000C200877F8093C2000895CF93DF93282F57
:1004400030E0F901E157FD4F8491F901E059FD4F8A
:10045000D491F901EF5AFD4FC491CC23A1F0811141
:100460000E94D101EC2FF0E0EE0FFF1FED5BFD4F7E
:10047000A591B491EC91ED2381E090E009F480E046
:10048000DF91CF91089580E090E0FACF1F93CF9352
:10049000DF93282F30E0F901E157FD4F8491F901F6
:1004A000E059FD4FD491F901EF5AFD4FC491CC238F
:1004B000A9F0162F81110E94D101EC2FF0E0EE0F70
:1004C000FF1FEB5CFD4FA591B4918FB7F894EC91B1
:1004D000111108C0D095DE23DC938FBFDF91CF913F
:1004E0001F910895DE2BF8CFCF93DF9390E0FC01AE
:1004F000E059FD4F24918F5A9D4FFC018491882330
:10050000D1F090E0880F991FFC01E95DFD4FA591A6
:10051000B491FC01EB5CFD4FC591D491623071F454
:100520009FB7F8943C91822F809583238C93E88128
:100530002E2B28839FBFDF91CF9108958FB7F8941A
:10054000EC912E2B2C938FBFF6CF3FB7F894809170
:10055000070290910802A0910902B0910A0226B503
:10056000A89B05C02F3F19F00196A11DB11D3FBFEB
:10057000BA2FA92F982F8827BC01CD01620F711DBA
:10058000811D911D42E0660F771F881F991F4A95B4
:10059000D1F708958F929F92AF92BF92CF92DF9240
:1005A000EF92FF924B015C010E94A5026B017C015E
:1005B0000E94A5026C197D098E099F09683E73404F
:1005C00081059105A8F321E0821A9108A108B108DC
:1005D00088EEC80E83E0D81EE11CF11C8114910442
:1005E000A104B10429F7FF90EF90DF90CF90BF9066
:1005F000AF909F908F900895E091F201F091F301F8
:10060000309729F01092EF011092EE0109940895AD
:1006100008954091E4015091E5012091E20130916B
:10062000E30142175307B4F49091E8009570E1F3A9
:100630009091E80092FD19C08093F1008091E4014F
:100640009091E50101968F739927892B19F48EEF0C
:100650008093E8008091E4019091E50101969093E8
:10066000E5018093E40181E0089580E00895DF9240
:10067000EF92FF920F931F93CF93DF93D82E8A01AF
:10068000EB017B01E40EF51ECE15DF0559F0D7FE18
:1006900012C0FE0184910E94090321968111F4CFBA
:1006A0000FEF1FEFC801DF91CF911F910F91FF90C6
:1006B000EF90DF9008958881EECF0F931F93CF9333
:1006C000DF931F92CDB7DEB782E0898342E450E02A
:1006D00066EA71E080E80E9437030E94BD01DC01F8
:1006E00012960D911C910115110589F0D801ED911B
:1006F000FC910280F381E02DBE016F5F7F4FC80146
:10070000099597FD04C0F80100851185ECCF89811A
:100710000F90DF91CF911F910F910895615030F0AC
:100720002091F100FC0120830196F8CF289884E6FF
:100730008093170208958F929F92AF92BF92CF92AB
:10074000DF92EF92FF920F931F93CF93DF936C0191
:100750007B018A0180910B01882309F45CC08091A0
:100760001802882309F457C08091E80180FF05C072
:100770008091E00082608093E000E801B12C8AEF74
:10078000A82E93E0892E2AE3922E209711F4BB2005
:10079000D9F10E94AC0181110AC0AA94AA20D9F112
:1007A00061E070E080E090E00E94CA02EECF8C171A
:1007B0001D0611F00CF08C2F9FB7F8948092E90081
:1007C0002091E80025FD02C09FBFDFCF282F30E039
:1007D000C21BD30BF701815020F041914093F100EF
:1007E000FACFE20EF31EBB2021F09092E800B12C6C
:1007F000EBCF8091E80085FDE7CF9092E800BB2425
:10080000B394209709F3F3CF5D9884E68093E701D2
:10081000101611063CF081E090E0F601938382838C
:1008200010E000E0C801DF91CF911F910F91FF9080
:10083000EF90DF90CF90BF90AF909F908F900895F2
:10084000CF93DF931F92CDB7DEB76983DC01ED91C3
:10085000FC910280F381E02D41E050E0BE016F5F2A
:100860007F4F09950F90DF91CF91089583E080939A
:10087000E9008091F200882319F08AE38093E80070
:1008800008950E94AC0190E00895CF93DF931F92EA
:10089000CDB7DEB7FC018485958597FD08C02FEFA5
:1008A0003FEF358724870F90DF91CF910895CE01D8
:1008B00001960E948201019719F4898190E0F3CF9B
:1008C0008FEF9FEFF0CF0F931F93CF93DF931F9284
:1008D000CDB7DEB78C01FC018485958597FF0BC0F1
:1008E000CE0101960E948201019771F4898190E006
:1008F000F80195878487F801848595850F90DF91AD
:10090000CF911F910F9108958FEF9FEFF1CFFC01D1
:100910008485958597FD0BC09FB7F89482E08093FE
:10092000E9008091F2009FBF90E0019608959FB783
:10093000F89482E08093E9008091F2009FBF90E0FC
:10094000089520919801260F3327331F2132310556
:10095000ECF42091BC01FC0190E080E0243069F0CF
:1009600082E00895A09198012191AC0148585E4F12
:10097000A40FB52FB11D2C930196861798F3809183
:100980009801680F6093980180E0089581E00895D0
:100990001092BC0181E08093BE011092BD0161E024
:1009A00082E00E94460261E083E00E944602E9EB99
:1009B000F0E080818E7F808380818D7F808388E4DA
:1009C0008093B80085E48093BC0008950895E09179
:1009D000F1018091F001E81730F4F0E0EE5AFE4F9B
:1009E000808190E008958FEF9FEF08959091F1013D
:1009F0008091F0012FEF3FEF981748F4E92FF0E0D6
:100A0000EE5AFE4F208130E09F5F9093F101C901C3
:100A100008958091F0019091F101891B990B08953F
:100A2000CF93DF93CB01EA01642F0E94A104CE0192
:100A3000DF91CF910895CF93DF931F92CDB7DEB7AB
:100A4000698361E0CE0101960E94A10481E090E0FB
:100A50000F90DF91CF91089590E080E00895FB0121
:100A600001900020E9F73197AF01461B570BDC01DD
:100A7000ED91FC910280F381E02D0994CF93DF93F7
:100A800085ED8093BC008091740190917501A091D7
:100A90007601B09177010796A11DB11D23E0B695AF
:100AA000A795979587952A95D1F72091BC0024FDAD
:100AB00003C01092BC0136C0409174015091750181
:100AC0006091760170917701452B462B472B69F396
:100AD0000097A105B10541F025E32A95F1F7000043
:100AE0000197A109B109E1CF8091730191E0909341
:100AF00072018823B9F0C091B800D091BA008091FA
:100B0000BC008A7B8093BC0060E082E00E944602C9
:100B100060E083E00E9446020E94C804D093BA00BD
:100B2000C093B800DF91CF910895CF92DF92EF92FA
:100B3000FF920F931F93CF93DF93CDB7DEB7A197AB
:100B40000FB6F894DEBF0FBECDBF60910C0170915F
:100B50000D0180910E0190910F018E010F5F1F4FCB
:100B60002AE04CE00E94AC0C6C01F12CE12C0097C7
:100B7000D1F0FC0101900020E9F731978F01081BAB
:100B8000190BB8016F5F7F4F90E080E00E94AA13BD
:100B90007C01009741F0FC011082B6010E947014A4
:100BA00001151105E1F41982BE016F5F7F4F89E6DF
:100BB00092E00E942F05E114F10421F1C701A196F2
:100BC0000FB6F894DEBF0FBECDBFDF91CF911F915E
:100BD0000F91FF90EF90DF90CF900C94211306308F
:100BE000110510F006E010E0A801B701CE01019652
:100BF0000E947714E1E0F0E0EC0FFD1FE00FF11F21
:100C00001082D2CFA1960FB6F894DEBF0FBECDBF33
:100C1000DF91CF911F910F91FF90EF90DF90CF90D8
:100C200008951F920F920FB60F9211242F933F93A6
:100C30008F939F93AF93BF9380910302909104028F
:100C4000A0910502B09106023091020223E0230F29
:100C50002D3758F50196A11DB11D209302028093F6
:100C6000030290930402A0930502B09306028091C0
:100C7000070290910802A0910902B0910A02019620
:100C8000A11DB11D8093070290930802A093090251
:100C9000B0930A02BF91AF919F918F913F912F9195
:100CA0000F900FBE0F901F90189526E8230F029605
:100CB000A11DB11DD2CF1F920F920FB60F9211241A
:100CC0008F939F938091E1009091E100937F9093A7
:100CD000E10083FF0FC01092E90091E09093EB00D8
:100CE0001092EC0092E39093ED001092180298E0BD
:100CF0009093F00082FF22C093E09093E9009091DE
:100D0000F200992319F09AE39093E8009091E7019B
:100D1000992341F09091E70191509093E70191114F
:100D200001C05D9A90911702992341F090911702AA
:100D3000915090931702911101C0289A84FF18C016
:100D40008091E2008E7E81608093E2008091E100DC
:100D50008F7E8093E1008091E8018E7E8061809398
:100D6000E8019F918F910F900FBE0F901F901895E3
:100D700080FFF7CF8091E2008E7E80618093E20059
:100D80008091E1008E7E8093E1008091E8018E7E6B
:100D90008160E5CF1F920F920FB60F921124CF9270
:100DA000DF92EF92FF920F931F932F933F934F93F6
:100DB0005F936F937F938F939F93AF93BF93EF93C3
:100DC000FF93CF93DF93CDB7DEB76C97DEBFCDBF78
:100DD0001092E9008091E80083FF25C068E0CE0111
:100DE00045960E948E0382EF8093E8008D8987FFED
:100DF00039C09091E80090FFFCCF982F907609F0D1
:100E000034C19E894F89588D2F89F88C911131C03A
:100E1000803861F58091E9018093F1001092F10032
:100E20008EEF8093E8006C960FB6F894DEBF0FBE8D
:100E3000CDBFDF91CF91FF91EF91BF91AF919F9186
:100E40008F917F916F915F914F913F912F911F9162
:100E50000F91FF90EF90DF90CF900F900FBE0F900B
:100E60001F9018959EEF9093E800C7CF1092F10065
:100E7000D5CF913059F48111D3CF4130510581F64E
:100E80008091E9018D7F8093E901CACF933049F4C5
:100E90008111C6CF4130510519F68091E901826078
:100EA000F2CF953041F48091E80080FFFCCF2068BC
:100EB0002093E300B5CF963009F0A9C00B8D1C8DAF
:100EC00022E01092E9001092E5011092E401F21282
:100ED0002EC01092E3011092E2010E945D031F8276
:100EE00099E09983FA8291E09E8390EA98879AEF3D
:100EF00099872091E4013091E501275F3F4F3C83C2
:100F00002B838D831092E9001092E5011092E40189
:100F10001093E3010093E20149E050E0BE016F5FEE
:100F20007F4F80E00E9437030E945D0379CF1093CA
:100F3000E3010093E2010E94BD01DC0112960D91D4
:100F40001C910115110509F451C1D801ED91FC91D5
:100F50000480F581E02DBE016B5E7F4FC8010995CD
:100F6000009709F03EC1F80100851185EACFF3E052
:100F7000FF120EC08F89882309F440C0823061F4CB
:100F800040E860E18AE092E00E941B0A811148CFAC
:100F900081E28093EB0047CF813029F440E86BE099
:100FA0008EEF91E0F1CF833099F70E94BD01DC0113
:100FB0001296ED90FC908E010F5F1F4F6801E114B7
:100FC000F10479F0D701ED91FC910680F781E02DD5
:100FD000B801C7010995080F111DF701E084F184DC
:100FE000EECFD8011C92F60101900020E9F731976D
:100FF000BF016C197D0940E0C601C6CF68EE71E003
:10100000FB01449150E080E80E94370309CF9730FC
:1010100009F4BECF983021F481E08093F10000CF35
:10102000993009F0FDCE837009F0B2CFEBE1F1E029
:1010300081E031E096E32191222371F08093E90071
:101040003093EB00DF0111972C912093EC009093EB
:10105000ED008F5F873079F78EE78093EA0010927A
:10106000EA008F8980931802DBCE8B8D9C8D1092C5
:10107000E9001092E5011092E4019093E30180935E
:10108000E201898D811192C08E899D89913A49F43E
:10109000813209F07DCF47E050E064E071E080E00C
:1010A000B3CF913209F074CF833269F48F89988D70
:1010B000B0E0A0E08093000190930101A0930201B1
:1010C000B0930301ADCE803269F48091E80082FFD5
:1010D000FCCF67E084E091E00E948E038BEF809369
:1010E000E8009ECE823209F09BCE8F8980930B015F
:1010F000EEEFFFE7859194918B3F9C4D51F1E0E03D
:10110000F8E08091040190910501A0910601B09151
:101110000701803B9440A105B105F1F480910B01DA
:1011200080FD1AC0EE3F8AE0F80789F587E797E768
:1011300091838083809160008093E60188E19BE049
:101140000FB6F894A895809360000FBE909360004E
:1011500067CEEEEFFAE0D5CF808191818737974750
:1011600009F05ECEA8958091600088618093600050
:101170008091E60180936000EE3F2AE0F20789F05B
:101180008091FE0A9091FF0A9183808349CE8081ED
:1011900091818737980751F29093FF0A8093FE0A56
:1011A000C5CF1092FF0A1092FE0A3ACE0E94BD01EE
:1011B000DC0112960D911C910115110509F4E8CE80
:1011C000D801ED91FC910190F081E02DBE016B5EA4
:1011D0007F4FC8010995811123CEF8010085118543
:1011E000EBCF181619060CF41BCED2CEF1E0FF128D
:1011F000BECE6CEE71E004CF1F920F920FB60F922D
:1012000011242F933F934F935F936F937F938F930B
:101210009F93AF93BF93EF93FF938091B900887F23
:10122000803609F44AC0F0F5883209F4A7C018F5F1
:10123000803109F49BC0B8F4882309F4F9C08830E0
:1012400009F494C0FF91EF91BF91AF919F918F915D
:101250007F916F915F914F913F912F910F900FBEB2
:101260000F901F901895883109F488C0803251F78B
:101270008093BB0114C0803409F49DC040F48033D6
:10128000B9F38833F9F68093BB0185ECB0C08035A3
:1012900009F485C0883509F496C0883499F60E940F
:1012A0003E05D0CF883909F48CC038F5883729F04D
:1012B00050F4883611F0803729F683E08093BC0122
:1012C0001092BA0157C0883809F47BC0803919F0F0
:1012D000803809F0B7CF8091BA01803208F071C030
:1012E000E091BA0181E08E0F8093BA018091BB003A
:1012F000F0E0E656FE4F80833DC0803B39F0E0F4DD
:10130000803A09F479C0883A09F09CCF84E0809350
:10131000BC011092990110929801E091EC01F091BA
:10132000ED0109958091980181110FC081E08093B2
:1013300098011092780109C0803C09F4A6CF883C3E
:1013400009F4A3CF883B09F07DCFE091990181E0BA
:101350008E0F80939901F0E0E858FE4F80818093D2
:10136000BB00909199018091980129C08091E10181
:101370008093BB0085EC8093BC0064CF9091E0012A
:101380008091DF01981758F5E091E00181E08E0F20
:101390008093E001F0E0E154FE4F8081E9CFE091DD
:1013A000E00181E08E0F8093E0018091BB00F0E0CE
:1013B000E154FE4F80839091E0018091DF01981706
:1013C000C8F285E8D8CFE091E00181E08E0F8093EC
:1013D000E0018091BB00F0E0E154FE4F80838091FA
:1013E000BE0181115CCF81E08093BD0184EA8093CE
:1013F000BC001092BC0126CF85EC8093BC001092FB
:10140000BC018091BA01803230F4E091BA01F0E081
:10141000E656FE4F10826091BA0170E0E091EA0159
:10142000F091EB018AE991E009951092BA010ACF97
:101430001092BB0134CFEF92FF920F931F93CF9383
:10144000DF93F82E192FE62E042F81E0860F880FE8
:101450000E94090383E00E940903CF2DD12FEC0ED7
:10146000FD2EF11CCE15DF05B9F007FF13C0FE01FC
:1014700084910E940903182F80E00E9409038123B0
:1014800021968111EFCFDF91CF911F910F91FF90A6
:10149000EF9008958881EDCF81E0F5CFE9E1F2E0AA
:1014A0001382128288EE93E0A0E0B0E084839583FB
:1014B000A683B78325E231E0318320832FEF3FEF0E
:1014C00035872487E9E6F2E01382128284839583CC
:1014D000A683B78387E391E091838083089578940E
:1014E00084B5826084BD84B5816084BD85B5826029
:1014F00085BD85B5816085BD80916E0081608093DA
:101500006E00109281008091810082608093810042
:101510008091810081608093810080918000816052
:1015200080938000809191008260809391008091EF
:101530009100816080939100809190008160809300
:1015400090008091C10084608093C1008091C100AF
:1015500082608093C1008091C10081608093C1004E
:101560008091C30081608093C3008091C00082603D
:101570008093C0008091C20081608093C2008091FE
:101580007A00846080937A0080917A0082608093F0
:101590007A0080917A00816080937A0080917A004D
:1015A000806880937A00109218021092E9011092DC
:1015B000E8018091D70081608093D70080EA809312
:1015C000D80089B5806189BD89B5826089BD09B4BB
:1015D00000FEFDCF61E070E080E090E00E94CA0272
:1015E0008091D8008F7C80618093D8008091E0004A
:1015F000807F8093E0008091E1008E7E8093E10007
:101600008DE08093E200559A209A62E087E00E9484
:10161000740262E086E00E94740261E085E00E944C
:10162000740261E084E00E94740261E085E00E943F
:10163000460260E084E00E9446028FEF9FEF9093A5
:101640002602809325021092F1011092F00110926F
:10165000EF011092EE010E94C8048CEF92E090938B
:10166000ED018093EC0188E093E09093EB0180938F
:10167000EA0182E08093BA0085E995E09093F30156
:101680008093F20164EF71E080E090E00E94CA0272
:1016900065E471E089E192E00E942F056EE471E05B
:1016A00089E192E00E942F050DE112E088248A94DE
:1016B00083E0982EA12CB12CC0E0D0E087E00E94FE
:1016C0001D02892B09F075C087E00E941D02892B3D
:1016D00091F5F801849120917B00982F990F990F33
:1016E00090722F7D922B90937B0087708064809303
:1016F0007C0080917A00806480937A0080917A00E7
:1017000086FDFCCF80917800A0917900BA2FA82F98
:1017100024E630E00E946411A50194010E94C410E7
:101720003093F5012093F40164E670E080E090E0EE
:101730000E94CA02C9CF61E084E00E94460260E0D4
:1017400085E00E9446026091F4017091F501072E38
:10175000000C880B990B0E94A70F20E030E04AE7AD
:1017600054E40E94061020E030E048EC52E40E946D
:10177000D8116093FA017093FB018093FC01909360
:10178000FD0120910C0130910D0140910E0150910D
:101790000F010E946B1120E030E046E153E40E940B
:1017A000D8116093F6017093F7018093F80190933C
:1017B000F90186E00E941D02892B21F587E00E9435
:1017C0001D02892B39F464E670E080E090E00E940D
:1017D000CA02F4CF80910C0190910D01A0910E01ED
:1017E000B0910F018093FA019093FB01A093FC014B
:1017F000B093FD011092F6011092F7011092F801DA
:101800001092F9018FB7F8944091030250910402AD
:1018100060910502709106028FBF8091FE01909148
:10182000FF01A0910002B091010288539F4FAF4F7A
:10183000BF4F84179507A607B70708F053C02FB707
:10184000F8948091030290910402A0910502B09156
:1018500006022FBF8093FE019093FF01A093000228
:10186000B093010240900C0150900D0160900E0168
:1018700070900F01A30192016091FA017091FB0138
:101880008091FC019091FD010E946B116B017C0124
:1018900020E030E0A9010E948012181624F0F7FA27
:1018A000F094F7F8F09420E030E040E251E4C70112
:1018B000B6010E94801218160CF045C0A3019201D7
:1018C0006091F6017091F7018091F8019091F90112
:1018D0000E946C1160930C0170930D0180930E01B6
:1018E00090930F01C0900C01D0900D01E0900E017B
:1018F000F0900F0120E030E040EA50E4C701B6016B
:101900000E946C110E944A122B013C0120E030E041
:1019100040EA50E4C701B6010E946B110E944A12CE
:10192000641575058605970514F40E94160D68EC7C
:1019300070E080E090E00E94CA02209709F4BECED9
:101940000E940000BBCE1092F6011092F701109297
:10195000F8011092F901C6CFEF920F931F93CF9326
:10196000DF93E80134E047FD34E1042E000C550B11
:1019700057FF03C0519541955109E32E022F242FA3
:10198000AE010E946E0DCE01DF91CF911F910F919C
:10199000EF9008958F929F92AF92BF92CF92DF9275
:1019A000EF92FF92CF93DF93EC01688179818A8176
:1019B0009B81611571058105910521F464E279ED42
:1019C0008BE597E02DE133EF41E050E00E94C41039
:1019D00049015A019B01AC01A7EAB1E40E94E3105E
:1019E0006B017C01ACEEB4EFA50194010E94F110F3
:1019F000C60ED71EE81EF91EF7FE06C081E0C81A03
:101A0000D108E10880E8F80AC882D982EA82FB821C
:101A1000C701B6019F77DF91CF91FF90EF90DF90E4
:101A2000CF90BF90AF909F908F9008958F929F928C
:101A3000AF92BF92CF92DF92EF92FF92609110012E
:101A4000709111018091120190911301611571053E
:101A50008105910521F464E279ED8BE597E02DE1B4
:101A600033EF41E050E00E94C41049015A019B014C
:101A7000AC01A7EAB1E40E94E3106B017C01ACEE7B
:101A8000B4EFA50194010E94F110C60ED71EE81E06
:101A9000F91EF7FE06C081E0C81AD108E10880E807
:101AA000F80AC0921001D0921101E0921201F09256
:101AB0001301C701B6019F77FF90EF90DF90CF90A1
:101AC000BF90AF909F908F90089560931001709396
:101AD000110180931201909313010895A9E0B0E0E1
:101AE000E4E7FDE00C94FC106A01F22EB02E102FFA
:101AF000FBE3AF2EA01608F41BE31F5F012F27E0C6
:101B0000AE014F5F5F4F0E94CD0EBC018981982FBF
:101B10009970913009F43FC09BE2E1FC04C09E2D16
:101B20009170E0FC3AC05E2D5071E82FE87083FFA1
:101B300046C084E0911101C083E0EF2DE81B8F15B2
:101B400008F0E0E0D6018E2F20E2552351F19923D1
:101B500029F0D6019C93C60101966C0196012D5F78
:101B60003F4FE2FE24C08EE4D6018C9391E411969F
:101B70009C93119712968C93D9018E2F90E281112C
:101B80001BC0E20FF32FF11D10828EEF9FEF2996FD
:101B9000ECE00C9418119DE2C6CF90E2C4CF2D93D7
:101BA00081508111FCCFCE0ED11CE0E0D0CF8EE66B
:101BB000D6018C9391E6DBCF9D938150E0CF482FE7
:101BC000447082FF3DC084E0911101C083E08F1515
:101BD00010F4EF2DE81BD6018E2F20E2552309F1DA
:101BE000992329F0D6019C93C60101966C019601B8
:101BF0002D5F3F4FE2FE1BC089E4D6018C938EE43B
:101C000011968C93119786E412968C93D9018E2F9E
:101C100090E2882309F4B5CF9D938150FACF2D939C
:101C200081508111FCCFCE0ED11CE0E0D9CF89E6E6
:101C3000D6018C938EE611968C93119786E6E4CFAD
:101C40009B0177FF02C030E020E0A1E0B0E09111FD
:101C500002C0B0E0A0E0F9013196AE0FBF1F8B2C9F
:101C6000912CBB2009F461C05401EFEFAE1ABE0AFB
:101C7000AA0DBB1DFA161B0619F014F04F2D4A1BB6
:101C8000511188C0E3FC59C07601A42FB0E2A11124
:101C90004FC0C40ED11C992309F45BC040E0D601AB
:101CA0001196F60190836D01552309F448C0012F68
:101CB000060F9A81582F507184FF03C0913309F4A5
:101CC000015010160CF047C0093008F008E0EEE2B1
:101CD000FE2E5B01A01AB1088501919481949108B0
:101CE0002F3F320729F4D601FC92F60131966F019D
:101CF0006217730794F1021713077CF5DB01A21B2F
:101D0000B30BAA24A394B12CAC0EBD1EAA0DBB1D0F
:101D100011968C9121503109D6011196281539055B
:101D2000F4F0F60180836D01DBCFB12CA12CA0CFA4
:101D3000F701B1937F01A150AACF9111B0CFD60185
:101D4000942F50E302C05D9391509111FCCFC40ECB
:101D5000D11C40E0ACCF01E0BACF80E3DBCF62170B
:101D6000730731F4963388F4953311F4552369F0F1
:101D7000F6018083FD01842F90E2811108C0A40F39
:101D8000B11D1C9290E080E002CF81E3F1CF9193EE
:101D90008150F3CF911183CF8ACF283008F027E00C
:101DA0003327DA01990F311D87FD91600096610597
:101DB000710539F432602E5F3D9330E32A95E1F7E7
:101DC00008959F3F30F080387105610509F03C5F50
:101DD0003C5F3D93913008F08068911DDF93CF9375
:101DE0001F930F93FF92EF92192F987F9695E92FEB
:101DF00096959695E90FFF27EA5FFE4F99273327BF
:101E0000EE24FF24A701E70105900894079428F425
:101E1000360FE71EF81E491F511D660F771F881FDA
:101E2000991F0694A1F70590079428F4E70EF81E71
:101E3000491F561FC11D770F881F991F661F0694E3
:101E4000A1F70590079428F4F80E491F561FC71FE5
:101E5000D11D880F991F661F771F0694A1F7059063
:101E6000079420F4490F561FC71FD81F990F661FEC
:101E7000771F881F0694A9F784911095177041F079
:101E8000D695C79557954795F794E7941A95C1F756
:101E9000ECEAF0E068941590159135916591959173
:101EA00005907FE27395E118F10A430B560BC90BBD
:101EB000D009C0F7E10CF11E431F561FC91FD01DEA
:101EC0007EF4703311F48A95E6CFE894015030F037
:101ED000080F0AF40027021708F4202F2395022F79
:101EE0007A3328F079E37D932A95E9F710C07D9342
:101EF0002A9589F6069497956795379517951794BF
:101F0000E118F10A430B560BC90BD00998F0239541
:101F10007E9173957A3308F070E37C932013B8F7C1
:101F20007E9170617D9330F0839571E37D9370E3D2
:101F30002A95E1F71124EF90FF900F911F91CF9117
:101F4000DF91992787FD90950895E89409C097FB44
:101F50003EF490958095709561957F4F8F4F9F4F80
:101F60009923A9F0F92F96E9BB279395F6958795C4
:101F700077956795B795F111F8CFFAF4BB0F11F487
:101F800060FF1BC06F5F7F4F8F4F9F4F16C088232E
:101F900011F096E911C0772321F09EE8872F762F64
:101FA00005C0662371F096E8862F70E060E02AF0A5
:101FB0009A95660F771F881FDAF7880F9695879591
:101FC00097F90895990F0008550FAA0BE0E8FEEF66
:101FD00016161706E807F907C0F012161306E407ED
:101FE000F50798F0621B730B840B950B39F40A26E6
:101FF00061F0232B242B252B21F408950A2609F4C4
:10200000A140A6958FEF811D811D08950E94191092
:102010000C948A100E947C1038F00E94831020F0EB
:10202000952311F00C9473100C94791011240C94D6
:10203000BE100E949B1070F3959FC1F3950F50E066
:10204000551F629FF001729FBB27F00DB11D639F6A
:10205000AA27F00DB11DAA1F649F6627B00DA11D10
:10206000661F829F2227B00DA11D621F739FB00DB6
:10207000A11D621F839FA00D611D221F749F332726
:10208000A00D611D231F849F600D211D822F762FBF
:102090006A2F11249F5750409AF0F1F088234AF09C
:1020A000EE0FFF1FBB1F661F771F881F9150504008
:1020B000A9F79E3F510580F00C9473100C94BE104C
:1020C0005F3FE4F3983ED4F3869577956795B7958F
:1020D000F795E7959F5FC1F7FE2B880F911D9695A9
:1020E000879597F9089597F99F6780E870E060E019
:1020F00008959FEF80EC089500240A9416161706A1
:1021000018060906089500240A94121613061406E8
:1021100005060895092E0394000C11F4882352F04B
:10212000BB0F40F4BF2B11F460FF04C06F5F7F4F03
:102130008F4F9F4F089557FD9058440F551F59F0EA
:102140005F3F71F04795880F97FB991F61F09F3FA4
:1021500079F087950895121613061406551FF2CFCD
:102160004695F1DF08C0161617061806991FF1CF1D
:1021700086957105610508940895E894BB27662744
:102180007727CB0197F90895052E97FB1EF400944D
:102190000E94DB1057FD07D00E942D1107FC03D0D1
:1021A0004EF40C94DB1050954095309521953F4F9F
:1021B0004F4F5F4F089590958095709561957F4F33
:1021C0008F4F9F4F08950E944F11A59F900DB49F70
:1021D000900DA49F800D911D11240895B7FF0C94BC
:1021E000E3100E94E310821B930B08952F923F92FD
:1021F0004F925F926F927F928F929F92AF92BF9217
:10220000CF92DF92EF92FF920F931F93CF93DF93C2
:10221000CDB7DEB7CA1BDB0B0FB6F894DEBF0FBE1F
:10222000CDBF09942A88398848885F846E847D846C
:102230008C849B84AA84B984C884DF80EE80FD806E
:102240000C811B81AA81B981CE0FD11D0FB6F894E4
:10225000DEBF0FBECDBFED010895A1E21A2EAA1B6D
:10226000BB1BFD010DC0AA1FBB1FEE1FFF1FA21746
:10227000B307E407F50720F0A21BB30BE40BF50B43
:10228000661F771F881F991F1A9469F760957095CC
:10229000809590959B01AC01BD01CF010895A29F4F
:1022A000B001B39FC001A39F700D811D1124911D2A
:1022B000B29F700D811D1124911D0895EE0FFF1F17
:1022C0000590F491E02D09940E944F11B7FF0895F5
:1022D000821B930B08955058BB27AA270E94831195
:1022E0000C948A100E947C1038F00E94831020F019
:1022F00039F49F3F19F426F40C9479100EF4E0950C
:10230000E7FB0C947310E92F0E949B1058F3BA1747
:10231000620773078407950720F079F4A6F50C94FB
:10232000BD100EF4E0950B2EBA2FA02D0B01B901B4
:1023300090010C01CA01A0011124FF27591B99F03B
:10234000593F50F4503E68F11A16F040A22F232F47
:10235000342F4427585FF3CF469537952795A79597
:10236000F0405395C9F77EF41F16BA0B620B730B3E
:10237000840BBAF09150A1F0FF0FBB1F661F771FAF
:10238000881FC2F70EC0BA0F621F731F841F48F464
:10239000879577956795B795F7959E3F08F0B0CFED
:1023A0009395880F08F09927EE0F979587950895D4
:1023B0000E94EC110C948A100E94831058F00E9425
:1023C0007C1040F029F45F3F29F00C9473105111F8
:1023D0000C94BE100C9479100E949B1068F3992302
:1023E000B1F3552391F3951B550BBB27AA27621711
:1023F0007307840738F09F5F5F4F220F331F441F1E
:10240000AA1FA9F335D00E2E3AF0E0E832D0915051
:102410005040E695001CCAF72BD0FE2F29D0660F3E
:10242000771F881FBB1F261737074807AB07B0E881
:1024300009F0BB0B802DBF01FF2793585F4F3AF087
:102440009E3F510578F00C9473100C94BE105F3FC2
:10245000E4F3983ED4F3869577956795B795F7950D
:102460009F5FC9F7880F911D9695879597F90895F5
:10247000E1E0660F771F881FBB1F62177307840791
:10248000BA0720F0621B730B840BBA0BEE1F88F7A0
:10249000E09508950E9451126894B1110C94BE10F9
:1024A00008950E94A31088F09F5798F0B92F99279C
:1024B000B751B0F0E1F0660F771F881F991F1AF02F
:1024C000BA95C9F714C0B13091F00E94BD10B1E0C7
:1024D00008950C94BD10672F782F8827B85F39F0C6
:1024E000B93FCCF3869577956795B395D9F73EF4C8
:1024F00090958095709561957F4F8F4F9F4F089570
:102500000E94E20F08F48FEF08950F931F93CF936B
:10251000DF938230910510F482E090E0E091770241
:10252000F091780230E020E0B0E0A0E0309799F43C
:102530002115310509F44AC0281B390B2430310517
:10254000D8F58A819B816115710589F1FB0193831F
:102550008283FE0111C0408151810281138148179D
:102560005907E0F04817590799F4109761F012964F
:102570000C93129713961C933296CF01DF91CF9153
:102580001F910F9108950093770210937802F4CF72
:102590002115310551F04217530738F0A901DB012D
:1025A0009A01BD01DF01F801C1CFEF01F9CF90938E
:1025B000780280937702CDCFFE01E20FF31F819363
:1025C00091932250310939832883D7CF2091750206
:1025D00030917602232B41F420911601309117019E
:1025E00030937602209375022091140130911501E9
:1025F0002115310541F42DB73EB740911801509196
:102600001901241B350BE0917502F0917602E21757
:10261000F307A0F42E1B3F0B2817390778F0AC0105
:102620004E5F5F4F2417350748F04E0F5F1F5093E2
:10263000760240937502819391939FCFF0E0E0E0A2
:102640009CCFCF93DF930097E9F0FC013297138280
:102650001282A0917702B0917802ED0130E020E083
:102660001097A1F420813181820F931F2091750270
:10267000309176022817390709F061C0F09376028D
:10268000E0937502DF91CF910895EA01CE17DF073D
:10269000E8F54A815B819E0141155105B1F7E901D9
:1026A000FB83EA8349915991C40FD51FEC17FD07AD
:1026B00061F4808191810296840F951FE9019983CD
:1026C0008883828193819B838A83F0E0E0E0129685
:1026D0008D919C9113970097B9F52D913C9111978D
:1026E000CD010296820F931F2091750230917602E0
:1026F0002817390739F6309751F510927802109261
:102700007702B0937602A0937502BCCFD383C283C5
:1027100040815181840F951FC817D90761F44E5F1E
:102720005F4F88819981480F591F518340838A8167
:102730009B81938382832115310509F0B0CFF093FB
:102740007802E09377029ECFFD01DC01C0CF1382B7
:102750001282D7CFB0E0A0E0E0EBF3E10C94F810E8
:102760008C01009751F4CB010E9485128C01C801A5
:10277000CDB7DEB7E0E10C941411FC01E60FF71FB2
:102780009C0122503109E217F30708F49DC0D901DA
:10279000CD91DC911197C617D70798F0C530D105B8
:1027A00030F3CE0104978617970708F3C61BD70BA3
:1027B0002297C193D1936D937C93CF010E942113F3
:1027C000D6CF5B01AC1ABD0A4C018C0E9D1EA091A8
:1027D0007702B0917802512C412CF12CE12C10970A
:1027E00031F580917502909176028815990509F06E
:1027F0005CC04616570608F058C0809114019091AD
:102800001501009741F48DB79EB740911801509182
:102810001901841B950BE817F90708F055C0F093D0
:102820007602E0937502F90171836083A0CF8D91E8
:102830009C91119712966C90129713967C90139717
:10284000A815B90559F56C0142E0C40ED11CCA1493
:10285000DB0420F1AC014A195B09DA0112961597E5
:1028600080F06282738251834083D9016D937C939F
:10287000E114F10471F0D7011396FC93EE931297D3
:1028800076CF22968C0F9D1FF90191838083F301EF
:10289000EFCFF0937802E093770269CF481659069C
:1028A00008F42C017D01D3019ACFCB010E9485123F
:1028B0007C01009749F0AE01B8010E946714C8017D
:1028C0000E942113870153CF10E000E050CFFB019D
:1028D000DC0102C001900D9241505040D8F708959C
:1028E000FB01DC0101900D920020E1F70895FB014E
:1028F000DC014150504048F001900D920020C9F792
:1029000001C01D9241505040E0F70895F894FFCF68
:10291000FFFFFFFF00E10000000000000000C842D0
:102920000100000000007902800000C180810000E9
:10293000000000000020049B034104360487044586
:10294000046304000000001B0510052C05E60409C3
:1029500005F604E7044C6973746F203A29000D0AE8
:02296000000075
:00000001FF
